{
  "contractName": "Consultants",
  "abi": [
    {
      "constant": true,
      "inputs": [
        {
          "name": "",
          "type": "address"
        },
        {
          "name": "",
          "type": "uint256"
        }
      ],
      "name": "ownerToConsultants",
      "outputs": [
        {
          "name": "",
          "type": "uint256"
        }
      ],
      "payable": false,
      "stateMutability": "view",
      "type": "function",
      "signature": "0x21c346ad"
    },
    {
      "constant": true,
      "inputs": [],
      "name": "numberOfConsultants",
      "outputs": [
        {
          "name": "",
          "type": "uint256"
        }
      ],
      "payable": false,
      "stateMutability": "view",
      "type": "function",
      "signature": "0xc38c5a88"
    },
    {
      "constant": true,
      "inputs": [
        {
          "name": "",
          "type": "uint256"
        }
      ],
      "name": "consultantToOwner",
      "outputs": [
        {
          "name": "",
          "type": "address"
        }
      ],
      "payable": false,
      "stateMutability": "view",
      "type": "function",
      "signature": "0xf84a3996"
    },
    {
      "constant": false,
      "inputs": [
        {
          "name": "_hash",
          "type": "string"
        }
      ],
      "name": "addConsultant",
      "outputs": [],
      "payable": false,
      "stateMutability": "nonpayable",
      "type": "function",
      "signature": "0x31e5c35c"
    },
    {
      "constant": true,
      "inputs": [
        {
          "name": "_index",
          "type": "uint256"
        }
      ],
      "name": "getConsultant",
      "outputs": [
        {
          "name": "",
          "type": "string"
        },
        {
          "name": "",
          "type": "address"
        }
      ],
      "payable": false,
      "stateMutability": "view",
      "type": "function",
      "signature": "0x2de4098e"
    },
    {
      "constant": false,
      "inputs": [
        {
          "name": "_index",
          "type": "uint256"
        }
      ],
      "name": "removeConsultant",
      "outputs": [],
      "payable": false,
      "stateMutability": "nonpayable",
      "type": "function",
      "signature": "0xc58c6fbf"
    }
  ],
  "bytecode": "0x608060405234801561001057600080fd5b506106d1806100206000396000f300608060405260043610610078576000357c0100000000000000000000000000000000000000000000000000000000900463ffffffff16806321c346ad1461007d5780632de4098e146100de57806331e5c35c146101b7578063c38c5a8814610220578063c58c6fbf1461024b578063f84a399614610278575b600080fd5b34801561008957600080fd5b506100c8600480360381019080803573ffffffffffffffffffffffffffffffffffffffff169060200190929190803590602001909291905050506102e5565b6040518082815260200191505060405180910390f35b3480156100ea57600080fd5b5061010960048036038101908080359060200190929190505050610315565b60405180806020018373ffffffffffffffffffffffffffffffffffffffff1673ffffffffffffffffffffffffffffffffffffffff168152602001828103825284818151815260200191508051906020019080838360005b8381101561017b578082015181840152602081019050610160565b50505050905090810190601f1680156101a85780820380516001836020036101000a031916815260200191505b50935050505060405180910390f35b3480156101c357600080fd5b5061021e600480360381019080803590602001908201803590602001908080601f016020809104026020016040519081016040528093929190818152602001838380828437820191505050505050919291929050505061040a565b005b34801561022c57600080fd5b50610235610519565b6040518082815260200191505060405180910390f35b34801561025757600080fd5b506102766004803603810190808035906020019092919050505061051f565b005b34801561028457600080fd5b506102a3600480360381019080803590602001909291905050506105cd565b604051808273ffffffffffffffffffffffffffffffffffffffff1673ffffffffffffffffffffffffffffffffffffffff16815260200191505060405180910390f35b60036020528160005260406000208181548110151561030057fe5b90600052602060002001600091509150505481565b60606000808381548110151561032757fe5b906000526020600020016002600085815260200190815260200160002060009054906101000a900473ffffffffffffffffffffffffffffffffffffffff16818054600181600116156101000203166002900480601f0160208091040260200160405190810160405280929190818152602001828054600181600116156101000203166002900480156103fa5780601f106103cf576101008083540402835291602001916103fa565b820191906000526020600020905b8154815290600101906020018083116103dd57829003601f168201915b5050505050915091509150915091565b60006001600083908060018154018082558091505090600182039060005260206000200160009091929091909150908051906020019061044b929190610600565b50039050600360003373ffffffffffffffffffffffffffffffffffffffff1673ffffffffffffffffffffffffffffffffffffffff168152602001908152602001600020819080600181540180825580915050906001820390600052602060002001600090919290919091505550336002600083815260200190815260200160002060006101000a81548173ffffffffffffffffffffffffffffffffffffffff021916908373ffffffffffffffffffffffffffffffffffffffff16021790555060018054016001819055505050565b60015481565b3373ffffffffffffffffffffffffffffffffffffffff166002600083815260200190815260200160002060009054906101000a900473ffffffffffffffffffffffffffffffffffffffff1673ffffffffffffffffffffffffffffffffffffffff1614151561058c57600080fd5b60206040519081016040528060008152506000828154811015156105ac57fe5b9060005260206000200190805190602001906105c9929190610600565b5050565b60026020528060005260406000206000915054906101000a900473ffffffffffffffffffffffffffffffffffffffff1681565b828054600181600116156101000203166002900490600052602060002090601f016020900481019282601f1061064157805160ff191683800117855561066f565b8280016001018555821561066f579182015b8281111561066e578251825591602001919060010190610653565b5b50905061067c9190610680565b5090565b6106a291905b8082111561069e576000816000905550600101610686565b5090565b905600a165627a7a723058203578bc59ac931966628dfa3565581fbc5264912736b7d410cbf7c30c52694e720029",
  "source": "pragma solidity ^0.4.19;\n\ncontract Consultants {\n  string[] consultants;\n  uint public numberOfConsultants;\n  mapping (uint => address) public consultantToOwner;\n  mapping (address => uint[]) public ownerToConsultants;\n\n  function addConsultant(string _hash) public {\n    uint id = consultants.push(_hash) - 1;\n    ownerToConsultants[msg.sender].push(id);\n    consultantToOwner[id] = msg.sender;\n    numberOfConsultants = numberOfConsultants + 1;\n  }\n\n  // Returns the consultant hash and the address of the owner\n  function getConsultant(uint _index) public view returns (string, address) {\n    return (consultants[_index], consultantToOwner[_index]);\n  }\n\n\n  // This removes the conultant hash\n  function removeConsultant(uint _index) public {\n    require(consultantToOwner[_index] == msg.sender);\n    consultants[_index] = \"\";\n  }\n}\n",
  "sourcePath": "/Users/sogasg/dev/halling/consult-match/contracts/Consultants.sol",
  "compiler": {
    "name": "solc",
    "version": "0.4.25+commit.59dbf8f1.Emscripten.clang"
  },
  "schemaVersion": "3.0.0-beta.1",
  "updatedAt": "2018-10-16T14:30:28.316Z"
}