{
  "contractName": "Jobs",
  "abi": [
    {
      "constant": true,
      "inputs": [
        {
          "name": "",
          "type": "address"
        },
        {
          "name": "",
          "type": "uint256"
        }
      ],
      "name": "ownerToJobs",
      "outputs": [
        {
          "name": "",
          "type": "uint256"
        }
      ],
      "payable": false,
      "stateMutability": "view",
      "type": "function",
      "signature": "0x112a9faf"
    },
    {
      "constant": true,
      "inputs": [
        {
          "name": "",
          "type": "uint256"
        }
      ],
      "name": "isJobDone",
      "outputs": [
        {
          "name": "",
          "type": "bool"
        }
      ],
      "payable": false,
      "stateMutability": "view",
      "type": "function",
      "signature": "0x19fa9481"
    },
    {
      "constant": true,
      "inputs": [
        {
          "name": "",
          "type": "uint256"
        }
      ],
      "name": "jobToOwner",
      "outputs": [
        {
          "name": "",
          "type": "address"
        }
      ],
      "payable": false,
      "stateMutability": "view",
      "type": "function",
      "signature": "0x646a1952"
    },
    {
      "constant": true,
      "inputs": [],
      "name": "numberOfJobs",
      "outputs": [
        {
          "name": "",
          "type": "uint256"
        }
      ],
      "payable": false,
      "stateMutability": "view",
      "type": "function",
      "signature": "0xce87ce1f"
    },
    {
      "constant": false,
      "inputs": [
        {
          "name": "_hash",
          "type": "string"
        }
      ],
      "name": "addJob",
      "outputs": [],
      "payable": false,
      "stateMutability": "nonpayable",
      "type": "function",
      "signature": "0x75cb0ac8"
    },
    {
      "constant": true,
      "inputs": [
        {
          "name": "_index",
          "type": "uint256"
        }
      ],
      "name": "getJob",
      "outputs": [
        {
          "name": "",
          "type": "string"
        },
        {
          "name": "",
          "type": "bool"
        },
        {
          "name": "",
          "type": "address"
        }
      ],
      "payable": false,
      "stateMutability": "view",
      "type": "function",
      "signature": "0xbf22c457"
    },
    {
      "constant": false,
      "inputs": [
        {
          "name": "_index",
          "type": "uint256"
        }
      ],
      "name": "markJobComplete",
      "outputs": [],
      "payable": false,
      "stateMutability": "nonpayable",
      "type": "function",
      "signature": "0x1901ac83"
    }
  ],
  "bytecode": "0x608060405234801561001057600080fd5b50610761806100206000396000f300608060405260043610610083576000357c0100000000000000000000000000000000000000000000000000000000900463ffffffff168063112a9faf146100885780631901ac83146100e957806319fa948114610116578063646a19521461015b57806375cb0ac8146101c8578063bf22c45714610231578063ce87ce1f14610315575b600080fd5b34801561009457600080fd5b506100d3600480360381019080803573ffffffffffffffffffffffffffffffffffffffff16906020019092919080359060200190929190505050610340565b6040518082815260200191505060405180910390f35b3480156100f557600080fd5b5061011460048036038101908080359060200190929190505050610370565b005b34801561012257600080fd5b506101416004803603810190808035906020019092919050505061040c565b604051808215151515815260200191505060405180910390f35b34801561016757600080fd5b506101866004803603810190808035906020019092919050505061042c565b604051808273ffffffffffffffffffffffffffffffffffffffff1673ffffffffffffffffffffffffffffffffffffffff16815260200191505060405180910390f35b3480156101d457600080fd5b5061022f600480360381019080803590602001908201803590602001908080601f016020809104026020016040519081016040528093929190818152602001838380828437820191505050505050919291929050505061045f565b005b34801561023d57600080fd5b5061025c6004803603810190808035906020019092919050505061056e565b6040518080602001841515151581526020018373ffffffffffffffffffffffffffffffffffffffff1673ffffffffffffffffffffffffffffffffffffffff168152602001828103825285818151815260200191508051906020019080838360005b838110156102d85780820151818401526020810190506102bd565b50505050905090810190601f1680156103055780820380516001836020036101000a031916815260200191505b5094505050505060405180910390f35b34801561032157600080fd5b5061032a61068a565b6040518082815260200191505060405180910390f35b60026020528160005260406000208181548110151561035b57fe5b90600052602060002001600091509150505481565b3373ffffffffffffffffffffffffffffffffffffffff166003600083815260200190815260200160002060009054906101000a900473ffffffffffffffffffffffffffffffffffffffff1673ffffffffffffffffffffffffffffffffffffffff161415156103dd57600080fd5b60016004600083815260200190815260200160002060006101000a81548160ff02191690831515021790555050565b60046020528060005260406000206000915054906101000a900460ff1681565b60036020528060005260406000206000915054906101000a900473ffffffffffffffffffffffffffffffffffffffff1681565b6000600160008390806001815401808255809150509060018203906000526020600020016000909192909190915090805190602001906104a0929190610690565b50039050600260003373ffffffffffffffffffffffffffffffffffffffff1673ffffffffffffffffffffffffffffffffffffffff168152602001908152602001600020819080600181540180825580915050906001820390600052602060002001600090919290919091505550336003600083815260200190815260200160002060006101000a81548173ffffffffffffffffffffffffffffffffffffffff021916908373ffffffffffffffffffffffffffffffffffffffff16021790555060018054016001819055505050565b606060008060008481548110151561058257fe5b906000526020600020016004600086815260200190815260200160002060009054906101000a900460ff166003600087815260200190815260200160002060009054906101000a900473ffffffffffffffffffffffffffffffffffffffff16828054600181600116156101000203166002900480601f0160208091040260200160405190810160405280929190818152602001828054600181600116156101000203166002900480156106765780601f1061064b57610100808354040283529160200191610676565b820191906000526020600020905b81548152906001019060200180831161065957829003601f168201915b505050505092509250925092509193909250565b60015481565b828054600181600116156101000203166002900490600052602060002090601f016020900481019282601f106106d157805160ff19168380011785556106ff565b828001600101855582156106ff579182015b828111156106fe5782518255916020019190600101906106e3565b5b50905061070c9190610710565b5090565b61073291905b8082111561072e576000816000905550600101610716565b5090565b905600a165627a7a72305820b289d015da35ca0c02dde2060fc3d134b6deb4e8ca6650e14c3cdc5d4fd27fce0029",
  "source": "pragma solidity ^0.4.19;\n\ncontract Jobs {\n  string[] jobs;\n  uint public numberOfJobs;\n  mapping (address => uint[]) public ownerToJobs;\n  mapping (uint => address) public jobToOwner;\n  mapping (uint => bool) public isJobDone;\n\n  function addJob(string _hash) public {\n    uint id = jobs.push(_hash) - 1;\n    ownerToJobs[msg.sender].push(id);\n    jobToOwner[id] = msg.sender;\n    numberOfJobs = numberOfJobs + 1;\n  }\n\n  // returns the job hash, a bool indicating if the job is active or not and the address that owns/published the job\n  function getJob(uint _index) public view returns (string, bool, address) {\n    return (jobs[_index], isJobDone[_index], jobToOwner[_index]);\n  }\n\n  function markJobComplete(uint _index) public {\n    require(jobToOwner[_index] == msg.sender);\n    isJobDone[_index] = true;\n  }\n}\n",
  "sourcePath": "/Users/sogasg/dev/halling/consult-match/contracts/Jobs.sol",
  "compiler": {
    "name": "solc",
    "version": "0.4.25+commit.59dbf8f1.Emscripten.clang"
  },
  "schemaVersion": "3.0.0-beta.1",
  "updatedAt": "2018-10-16T14:30:28.315Z"
}